:100000000C94B5000C94D2000C94D2000C94D20045
:100010000C94D2000C94D2000C94D2000C945F018A
:100020000C94D2000C94D2000C94D2000C94D20008
:100030000C94D2000C94D2000C94D2000C94D200F8
:100040000C94D2000C94D2000C94D2000C94D200E8
:100050000C94D2000C94D2000C94D2000C94D200D8
:100060000C94D2000C94D2006E616E00696E660032
:1000700000407A10F35A00A0724E18090010A5D45F
:10008000E80000E87648170000E40B54020000CABC
:100090009A3B000000E1F505000080969800000002
:1000A00040420F000000A086010000001027000061
:1000B0000000E803000000006400000000000A00E7
:1000C000000000000100000000002C76D888DC67EA
:1000D0004F0823DFC1DFAE59E1B1B796E5E3E45342
:1000E000C63AE651997696E8E6C28426EB898C9B5F
:1000F00062ED407C6FFCEFBC9C9F40F2BAA56FA5FF
:10010000F490055A2AF75C936B6CF9676DC11BFC80
:10011000E0E40D47FEF520E6B500D0ED902E03009B
:10012000943577050080841E080000204E0A0000E8
:1001300000C80C333333330F986E12831141EF8DA7
:100140002114893BE65516CFFEE6DB18D1844B38E7
:100150001BF77C1D901DA4BBE424203284725E2218
:100160008100C9F124ECA1E53D2711241FBECFEF8A
:10017000D8E0DEBFCDBF11E0A0E0B1E0EEE0F7E1F6
:1001800002C005900D92AE34B107D9F721E0AEE47C
:10019000B1E001C01D92A337B207E1F70E948D03C1
:1001A0000C94850B0C940000CF93DF93C82FD92FAC
:1001B00087BD60E08AE00E94840160E085E00E94E3
:1001C00084018C2F9D2F9093890080938800DF916C
:1001D000CF9108950F931F93CF93DF938C0160E02D
:1001E00086E00E948401C8E8D0E01983088360E0BB
:1001F00085E00E94840119830883DF91CF911F91CC
:100200000F910895CF93C82F60E08BE00E94840186
:10021000C7BD60E089E00E948401C8BDCF91089508
:10022000CF93DF93C82FD92F60E086E00E9484012E
:10023000C8BD8C2F9D2F90938B0080938A0060E027
:1002400089E00E948401DF91CF910895CF92DF92DF
:10025000EF92FF92F82E61E08DE00E94840185E329
:100260008A95F1F7000060E08DE00E94840128E8A3
:1002700033E140E050E061E08F2D0E942A020E94AD
:10028000BD042EE03DE242EB5DE30E9423056B01DD
:100290007C0120E030E0A9010E94B804811108C06F
:1002A0000F2EC12CD12CFFE2EF2EF4E4FF2EF02D07
:1002B000C701B601FF90EF90DF90CF9008951F9295
:1002C0000F920FB60F9211248F939F93AF93BF930A
:1002D00080914E0190914F01A0915001B091510138
:1002E0000196A11DB11D80934E0190934F01A093E3
:1002F0005001B0935101BF91AF919F918F910F9099
:100300000FBE0F901F9018958830E8F461110EC051
:100310004BB121E030E0B90102C0660F771F8A952A
:10032000E2F7CB01809584238BB908954BB121E08E
:1003300030E0B90102C0660F771F8A95E2F7CB0162
:10034000842B8BB9089588508830E0F461110EC079
:1003500045B121E030E0B90102C0660F771F8A95F0
:10036000E2F7CB018095842385B9089545B121E05A
:1003700030E0B90102C0660F771F8A95E2F7CB0122
:10038000842B85B90895883088F561110EC04AB173
:1003900021E030E0B90102C0660F771F8A95E2F7CD
:1003A000CB01809584238AB90895613069F44AB1FC
:1003B00021E030E0B90102C0660F771F8A95E2F7AD
:1003C000CB01842B8AB908954AB121E030E0B9010C
:1003D00002C0660F771F8A95E2F7CB01962F9095A2
:1003E00094239AB99BB1892B8BB908958850883092
:1003F00080F561110EC044B121E030E0B90102C0C6
:10040000660F771F8A95E2F7CB018095842384B924
:100410000895613069F444B121E030E0B90102C0CF
:10042000660F771F8A95E2F7CB01842B84B9089574
:1004300044B121E030E0B90102C0660F771F8A9510
:10044000E2F7CB01962F9095942394B995B1892B1F
:1004500085B90895CF92DF92EF92FF920F931F9389
:1004600089019A01000F111F221F331F000F111F56
:10047000221F331F000F111F221F331F000F111FD8
:10048000221F331F883088F050C09FEFC91AD90A45
:10049000E90AF90AC016D106E206F30608F095C08B
:1004A00095E09A95F1F7000003C0C12CD12C76019C
:1004B00049B1E82F50E0082E02C0559547950A949F
:1004C000E2F7A1E0B0E040FD02C0A0E0B0E0462FBE
:1004D00050E0A417B507C9F6C12CD12C76010FC086
:1004E0008FEFC81AD80AE80AF80AC016D106E20641
:1004F000F30608F06FC095E09A95F1F7000089B116
:1005000090E00E2E02C0959587950A94E2F761E07F
:1005100070E080FD02C060E070E04617570701F30D
:100520006C2D7D2D8E2D9F2D63C08850C12CD12C1C
:1005300076010FC09FEFC91AD90AE90AF90AC01655
:10054000D106E206F30608F04AC095E09A95F1F765
:10055000000043B1E82F50E0082E02C055954795A2
:100560000A94E2F7A1E0B0E040FD02C0A0E0B0E0F4
:10057000462F50E0A417B507E9F6C12CD12C76011F
:100580000EC08FEFC81AD80AE80AF80AC016D106BA
:10059000E206F30648F595E09A95F1F7000083B17D
:1005A00090E00E2E02C0959587950A94E2F761E0DF
:1005B00070E080FD02C060E070E04617570709F365
:1005C0006C2D7D2D8E2D9F2D13C060E070E080E09E
:1005D00090E00EC060E070E080E090E009C060E074
:1005E00070E080E090E004C060E070E080E090E0C7
:1005F0001F910F91FF90EF90DF90CF900895CF93D0
:10060000C82F8A3019F48DE00E94FF028091C0004B
:1006100085FFFCCFC093C60080E090E0CF910895A5
:100620009B01AC0160E472E48FE090E00E945E09FF
:10063000215031093093C5002093C40088E0809395
:10064000C10086E08093C200089582EA8093800012
:100650008AE1809381008FEF90E0909387008093F0
:10066000860083EA84BD82E085BD0895CF93DF9341
:100670008AE191E09F938F930E94E10A80916C013F
:100680008F9380916B018F9380916A018F938091FA
:1006900069018F9386E291E09F938F930E94E10A14
:1006A000C1E3D1E0DF93CF930E94E10A80915B0127
:1006B0008F9380915A018F93809159018F938091EC
:1006C00058018F9385E391E09F938F930E94E10AF5
:1006D000DF93CF930E94E10A809160018F93809114
:1006E0005F018F9380915E018F9380915D018F9365
:1006F00080E491E09F938F930E94E10A8AE491E065
:100700000E94F70A8DB79EB748960FB6F8949EBF21
:100710000FBE8DBFDF91CF91089560E875E280E054
:1007200090E00E94100380E091E09093700180932C
:100730006F0161E085E00E94C30161E086E00E94F4
:10074000C30161E089E00E94C30161E08AE00E9488
:10075000C3010E94250362E084E10E94C30161E0BD
:10076000809110010E94C30160E0809118010E94F5
:10077000C30161E080910E010E94C30160E080919D
:1007800016010E94C30161E0809112010E94C30121
:1007900060E0809114010E94C30160E08CE00E943F
:1007A000C30160E08BE00E94C30160E082E00E9430
:1007B000C30160E083E00E94C30160E084E00E9426
:1007C000C30160E087E00E94C30160E088E00E940E
:1007D000C30161E08DE00E94C301809152019091BC
:1007E0005301892BD1F780911601909117010E9436
:1007F00026016093690170936A0180936B01909365
:100800006C012FEF81EE94E0215080409040E1F7A1
:1008100000C0000080911801909119010E942601EA
:10082000609358017093590180935A0190935B0132
:100830002FEF81EE94E0215080409040E1F700C01E
:10084000000080911401909115010E94260160938F
:100850005D0170935E0180935F01909360012FEFC3
:1008600081EE94E0215080409040E1F700C000000C
:100870000E943603609158017091590180915A018C
:1008800090915B0120E030E048EB51E40E94B80415
:1008900088230CF044C0C0905D01D0905E01E090D0
:1008A0005F01F090600120E030E048EB51E4C701C7
:1008B000B6010E94B80488239CF46091690170918C
:1008C0006A0180916B0190916C0120E030E048EB6F
:1008D00051E40E94B80488231CF40E9410017DCFCB
:1008E0008090690190906A01A0906B01B0906C01BA
:1008F000A5019401C701B6010E941E0518161CF43B
:100900000E94EA006ACFA5019401C701B6010E94C6
:10091000B80488230CF061CF0E9402015ECF609181
:100920005D0170915E0180915F019091600120E016
:1009300030E048EB51E40E94B80488231CF40E9484
:1009400002014BCF6091690170916A0180916B0146
:1009500090916C0120E030E048EB51E40E94B80433
:1009600088231CF40E94EA0038CF0E94D40035CFBF
:100970000E94FA0408F481E00895E89409C097FB06
:100980003EF490958095709561957F4F8F4F9F4F66
:100990009923A9F0F92F96E9BB279395F6958795AA
:1009A00077956795B795F111F8CFFAF4BB0F11F46D
:1009B00060FF1BC06F5F7F4F8F4F9F4F16C0882314
:1009C00011F096E911C0772321F09EE8872F762F4A
:1009D00005C0662371F096E8862F70E060E02AF08B
:1009E0009A95660F771F881FDAF7880F9695879577
:1009F00097F90895990F0008550FAA0BE0E8FEEF4C
:100A000016161706E807F907C0F012161306E407D2
:100A1000F50798F0621B730B840B950B39F40A26CB
:100A200061F0232B242B252B21F408950A2609F4A9
:100A3000A140A6958FEF811D811D08950E94FA04A3
:100A400008F48FEF08950E9436050C94A7050E94C4
:100A5000990538F00E94A00520F0952311F00C9420
:100A600090050C94960511240C94DB050E94B805A2
:100A700070F3959FC1F3950F50E0551F629FF001F1
:100A8000729FBB27F00DB11D639FAA27F00DB11D0A
:100A9000AA1F649F6627B00DA11D661F829F222793
:100AA000B00DA11D621F739FB00DA11D621F839F1A
:100AB000A00D611D221F749F3327A00D611D231FF0
:100AC000849F600D211D822F762F6A2F11249F573E
:100AD00050409AF0F1F088234AF0EE0FFF1FBB1F41
:100AE000661F771F881F91505040A9F79E3F510500
:100AF00080F00C9490050C94DB055F3FE4F3983E86
:100B0000D4F3869577956795B795F795E7959F5FA9
:100B1000C1F7FE2B880F911D9695879597F908953B
:100B200097F99F6780E870E060E008959FEF80ECA0
:100B3000089500240A941616170618060906089543
:100B400000240A9412161306140605060895092EA9
:100B50000394000C11F4882352F0BB0F40F4BF2B18
:100B600011F460FF04C06F5F7F4F8F4F9F4F089558
:100B700057FD9058440F551F59F05F3F71F047954E
:100B8000880F97FB991F61F09F3F79F08795089533
:100B9000121613061406551FF2CF4695F1DF08C052
:100BA000161617061806991FF1CF8695710561056F
:100BB00008940895E894BB2766277727CB0197F917
:100BC0000895A0E1B0E0E7EEF5E00C9480097C0127
:100BD0001B016A01FC0117821682838181FF44C3D5
:100BE0009E012F5F3F4F3901F7019381F10193FD82
:100BF000859193FF81911F01882309F431C38532C8
:100C000039F493FD859193FF81911F01853239F469
:100C1000B70190E00E94A50A56016501E5CF10E0FA
:100C2000512C912CFFE1F915D8F08B3279F038F482
:100C3000803279F08332A1F4F92DF0612EC08D322B
:100C400061F0803369F4292D21602DC0392D326087
:100C5000932E892D8460982E2AC0E92DE86015C056
:100C600097FC2DC020ED280F2A3088F496FE06C090
:100C70003AE0139F200D1124122F19C08AE0589ECC
:100C8000200D1124522EE92DE0629E2E10C08E32CE
:100C900031F496FCE5C2F92DF0649F2E08C08C3625
:100CA00021F4292D2068922E02C0883641F4F101EA
:100CB00093FD859193FF81911F018111B3CF9BEB30
:100CC000980F933020F4992D9061805E07C09BE9C6
:100CD000980F933008F066C1992D9F7E96FF16E01D
:100CE0009F73992E853619F49064992E08C0863624
:100CF00021F4392F3068932E02C01111115097FE44
:100D000007C01C3350F444244394410E27E00BC029
:100D1000183038F027E017E005C027E09CE3492EA3
:100D200002C0212F412C560184E0A80EB11CF6010F
:100D30006081718182819381042DA3010E94B70992
:100D40006C01F981FC87F0FF02C0F3FF06C091FC43
:100D500006C092FE06C000E205C00DE203C00BE231
:100D600001C000E08C858C7019F001115AC29BC241
:100D700097FE10C04C0CFC85F4FF04C08A818133BF
:100D800009F44A94141474F528E0241578F588E0E1
:100D9000482E2CC096FC2AC0812F90E08C159D0512
:100DA0009CF03CEFC3163FEFD30674F0892D8068AA
:100DB000982E0AC0E2E0F0E0EC0FFD1FE10FF11DFC
:100DC0008081803319F411501111F4CF97FE0EC0B9
:100DD00044244394410E812F90E0C816D9062CF488
:100DE0001C1904C04424439401C010E097FE06C0BF
:100DF0001C141D0434F4C601019605C085E090E082
:100E000002C081E090E001110196112331F0212F01
:100E100030E02F5F3F4F820F931F252D30E0821768
:100E2000930714F4581A01C0512C892D897049F484
:100E3000552039F0B70180E290E00E94A50A5A944B
:100E4000F7CF002329F0B701802F90E00E94A50A78
:100E500093FC09C0552039F0B70180E390E00E946F
:100E6000A50A5A94F7CF97FE4CC04601D7FE02C0A0
:100E7000812C912CC60188199909F301E80FF91FFB
:100E8000FE87ED87960124193109388B2F87012FB2
:100E900010E01195019511093FEF8316930629F48F
:100EA000B7018EE290E00E94A50AC814D9044CF064
:100EB0008F8598898815990524F4ED85FE858181B3
:100EC00001C080E3F1E08F1A91082D853E852F5FE8
:100ED0003F4F3E872D87801691062CF0B70190E09A
:100EE0000E94A50AD9CFC814D90441F49A81963337
:100EF00020F4953319F43C8534FF81E3B70190E089
:100F00004EC08A81813319F09C859F7E9C87B701F2
:100F100090E00E94A50A111105C094FC18C085E656
:100F200090E017C0B7018EE290E00E94A50A1E5F14
:100F300082E001E0080FF301E80FF11D8081B701A5
:100F400090E00E94A50A802F0113F3CFE6CF85E43D
:100F500090E0B7010E94A50AD7FC06C0C114D104D5
:100F600041F4EC85E4FF05C0D194C194D1088DE231
:100F700001C08BE2B70190E00E94A50A80E32AE05D
:100F8000C216D1042CF08F5FFAE0CF1AD108F7CF48
:100F9000B70190E00E94A50AB701C601C0960E9461
:100FA000A50A54C1833631F0833779F0833509F0CF
:100FB00056C020C0560132E0A30EB11CF60180815C
:100FC000898301E010E0630112C05601F2E0AF0E28
:100FD000B11CF601C080D18096FE03C0612F70E085
:100FE00002C06FEF7FEFC6010E949A0A8C01F92DB3
:100FF000FF7714C0560122E0A20EB11CF601C0809A
:10100000D18096FE03C0612F70E002C06FEF7FEFCA
:10101000C6010E948F0A8C01F92DF0689F2EF3FD06
:101020001AC0852D90E008171907A8F4B70180E2CF
:1010300090E00E94A50A5A94F4CFF60197FC85919E
:1010400097FE81916F01B70190E00E94A50A5110AF
:101050005A94015011090115110579F7F7C084362A
:1010600011F0893661F5560197FE09C024E0A20E01
:10107000B11CF60160817181828193810AC0F2E026
:10108000AF0EB11CF60160817181072E000C880B38
:10109000990BF92DFF769F2E97FF09C090958095AB
:1010A000709561957F4F8F4F9F4FF0689F2E2AE07C
:1010B00030E0A3010E94270BC82EC6183FC0092D9F
:1010C000853721F40F7E2AE030E01DC0097F8F367E
:1010D00091F018F4883559F0C3C0803719F088377B
:1010E00011F0BEC0006104FF09C0046007C094FE97
:1010F00008C0066006C028E030E005C020E130E00E
:1011000002C020E132E0560107FF09C084E0A80ECA
:10111000B11CF601608171818281938108C0F2E087
:10112000AF0EB11CF6016081718180E090E0A301F7
:101130000E94270BC82EC6180F77902E96FE0BC064
:10114000092D0E7FC11650F494FE0AC092FC08C00F
:10115000092D0E7E05C0DC2C092D03C0DC2C01C03E
:10116000D12E04FF0DC0FE01EC0DF11D80818033F6
:1011700011F4097E09C002FF06C0D394D39404C0C1
:10118000802F867809F0D39403FD11C000FF06C0BC
:101190001C2DD51480F4150D1D190DC0D51458F44F
:1011A000B70180E290E00E94A50AD394F7CFD5144E
:1011B00010F45D1801C0512C04FF10C0B70180E38A
:1011C00090E00E94A50A02FF17C001FD03C088E756
:1011D00090E002C088E590E0B7010CC0802F8678CF
:1011E00059F001FF02C08BE201C080E207FD8DE2F1
:1011F000B70190E00E94A50AC11638F4B70180E358
:1012000090E00E94A50A1150F7CFCA94F301EC0DAB
:10121000F11D8081B70190E00E94A50AC110F5CFB1
:1012200015C0F4E0F51560F584E0581A93FE1FC070
:10123000011127C02C8523FF2AC008E610E0392DB4
:101240003071932EF8018491811124C0552009F446
:10125000E4CCB70180E290E00E94A50A5A94F6CF50
:10126000F7018681978126C08FEF9FEF23C0B701DA
:1012700080E290E00E94A50A5A945110F8CFD8CF8E
:10128000512CB701802F90E00E94A50AD3CF0CE625
:1012900010E0D5CF91108052B70190E00E94A50ACE
:1012A0000F5F1F4FCFCF23E0251510F483E0BDCF94
:1012B000512CC0CF6096E2E10C949C09A1E21A2E59
:1012C000AA1BBB1BFD010DC0AA1FBB1FEE1FFF1FEA
:1012D000A217B307E407F50720F0A21BB30BE40B3A
:1012E000F50B661F771F881F991F1A9469F7609581
:1012F0007095809590959B01AC01BD01CF0108953B
:101300002F923F924F925F926F927F928F929F9215
:10131000AF92BF92CF92DF92EF92FF920F931F9303
:10132000CF93DF93CDB7DEB7CA1BDB0B0FB6F894B4
:10133000DEBF0FBECDBF09942A88398848885F84F4
:101340006E847D848C849B84AA84B984C884DF8065
:10135000EE80FD800C811B81AA81B981CE0FD11D49
:101360000FB6F894DEBF0FBECDBFED010895283053
:1013700008F027E03327DA01990F311D87FD9160CE
:1013800000966105710539F432602E5F3D9330E3BC
:101390002A95E1F708959F3F30F080387105610587
:1013A00009F03C5F3C5F3D93913008F08068911DEF
:1013B000DF93CF931F930F93FF92EF92192F987F94
:1013C0009695E92F96959695E90FFF27E653FF4FDF
:1013D00099273327EE24FF24A701E70105900894FD
:1013E000079428F4360FE71EF81E491F511D660F9B
:1013F000771F881F991F0694A1F70590079428F47A
:10140000E70EF81E491F561FC11D770F881F991F31
:10141000661F0694A1F70590079428F4F80E491F5B
:10142000561FC71FD11D880F991F661F771F06946F
:10143000A1F70590079420F4490F561FC71FD81F26
:10144000990F661F771F881F0694A9F7849110953E
:10145000177041F0D695C79557954795F794E7943F
:101460001A95C1F7E0E7F0E0689415901591359171
:101470006591959105907FE27395E118F10A430B10
:10148000560BC90BD009C0F7E10CF11E431F561FC4
:10149000C91FD01D7EF4703311F48A95E6CFE8940D
:1014A000015030F0080F0AF40027021708F4202F2B
:1014B0002395022F7A3328F079E37D932A95E9F773
:1014C00010C07D932A9589F6069497956795379570
:1014D00017951794E118F10A430B560BC90BD00965
:1014E00098F023957E9173957A3308F070E37C939E
:1014F0002013B8F77E9170617D9330F0839571E38E
:101500007D9370E32A95E1F71124EF90FF900F91FE
:101510001F91CF91DF91992787FD90950895FC0148
:101520000590615070400110D8F7809590958E0F0E
:101530009F1F0895FC016150704001900110D8F781
:10154000809590958E0F9F1F08950F931F93CF93B3
:10155000DF93FB01238121FD03C08FEF9FEF2CC0A0
:1015600022FF16C0468157812481358142175307D7
:1015700044F4A081B1819D012F5F3F4F31832083CF
:101580008C93268137812F5F3F4F3783268314C08A
:101590008B01EC01FB010084F185E02D0995892B7D
:1015A000E1F6D80116968D919C91179701961796A2
:1015B0009C938E931697CE01DF91CF911F910F913F
:1015C0000895A0E0B0E0E7EEFAE00C949009AE01D7
:1015D0004B5F5F4FFA0161917191AF0180916F0193
:1015E000909170010E94E105E2E00C94AC090F9328
:1015F0001F93CF93DF93E0916F01F09170012381EE
:1016000021FF1BC08C01D0E0C0E0F80181918F0167
:1016100060916F0170917001DB011896ED91FC9162
:101620001997882331F00995892B79F3DFEFCFEFF4
:10163000ECCF8AE00995892B19F08FEF9FEF02C05C
:101640008D2F9C2FDF91CF911F910F910895FA015B
:10165000AA27283051F1203181F1E8946F936E7FF1
:101660006E5F7F4F8F4F9F4FAF4FB1E03ED0B4E0E2
:101670003CD0670F781F891F9A1FA11D680F791F23
:101680008A1F911DA11D6A0F711D811D911DA11D34
:1016900020D009F468943F912AE0269F1124301944
:1016A000305D3193DEF6CF010895462F4770405DDF
:1016B0004193B3E00FD0C9F7F6CF462F4F70405D8E
:1016C0004A3318F0495D31FD4052419302D0A9F7E9
:1016D000EACFB4E0A6959795879577956795BA95E3
:1016E000C9F700976105710508959B01AC010A2EA9
:1016F00006945795479537952795BA95C9F7620F80
:0E170000731F841F951FA01D0895F894FFCF3E
:10170E000000000200000000FF02000000000D00BB
:10171E000D000D0007000400080064697374616E0B
:10172E006365733A2000726967687420252E3266ED
:10173E00002D2D2D0066726F6E7420252E326600E0
:0E174E006C65667420252E32660020636D00E7
:00000001FF
