:100000000C94BB000C94D8000C94D8000C94D8002D
:100010000C94D8000C94D8000C94D8000C94F204E2
:100020000C94D8000C94D8000C94D8000C94D800F0
:100030000C94D8000C94D8000C94D8000C94D800E0
:100040000C94D8000C94D8000C946F040C94D80035
:100050000C94D8000C94D8000C94D8000C94D800C0
:100060000C94D8000C94D8006E616E00696E660026
:1000700000407A10F35A00A0724E18090010A5D45F
:10008000E80000E87648170000E40B54020000CABC
:100090009A3B000000E1F505000080969800000002
:1000A00040420F000000A086010000001027000061
:1000B0000000E803000000006400000000000A00E7
:1000C000000000000100000000002C76D888DC67EA
:1000D0004F0823DFC1DFAE59E1B1B796E5E3E45342
:1000E000C63AE651997696E8E6C28426EB898C9B5F
:1000F00062ED407C6FFCEFBC9C9F40F2BAA56FA5FF
:10010000F490055A2AF75C936B6CF9676DC11BFC80
:10011000E0E40D47FEF520E6B500D0ED902E03009B
:10012000943577050080841E080000204E0A0000E8
:1001300000C80C333333330F986E12831141EF8DA7
:100140002114893BE65516CFFEE6DB18D1844B38E7
:100150001BF77C1D901DA4BBE424203284725E2218
:100160008100C9F124ECA1E53D27444144414D53B0
:1001700020434F2E000011241FBECFEFD8E0DEBF7A
:10018000CDBF11E0A0E0B1E0E4E2FDE102C00590E6
:100190000D92A23AB107D9F721E0A2EAB1E001C07D
:1001A0001D92A23DB207E1F70E945A050C94900EF1
:1001B0000C94000087BD18BC10928B0010928A002E
:1001C000282F392F309389002093880008951092AA
:1001D0008B0010928A00109289001092880087BDCF
:1001E00088BD089517BC18BC90938900809388003F
:1001F00090938B0080938A00089517BC88BD282FA8
:10020000392F30938B0020938A001092890010922E
:100210008800089517BC18BC1092890010928800BD
:1002200010928B0010928A000895CF92DF92EF9285
:10023000FF92F82E61E08DE00E944E0185E38A95E1
:10024000F1F7000060E08DE00E944E0120E931E00E
:1002500040E050E061E08F2D0E9428020E94C80714
:100260002EE03DE242EB5DE30E942E086B017C0133
:1002700020E030E0A9010E94C307811108C00F2EC1
:10028000C12CD12CFFE2EF2EF4E4FF2EF02DC7019C
:10029000B601FF90EF90DF90CF9008958830E8F49A
:1002A00061110EC04BB121E030E0B90102C0660F10
:1002B000771F8A95E2F7CB01809584238BB9089547
:1002C0004BB121E030E0B90102C0660F771F8A957B
:1002D000E2F7CB01842B8BB9089588508830E0F485
:1002E00061110EC045B121E030E0B90102C0660FD6
:1002F000771F8A95E2F7CB018095842385B908950D
:1003000045B121E030E0B90102C0660F771F8A9540
:10031000E2F7CB01842B85B90895883088F5611107
:100320000EC04AB121E030E0B90102C0660F771F6C
:100330008A95E2F7CB01809584238AB908956130CC
:1003400069F44AB121E030E0B90102C0660F771FBD
:100350008A95E2F7CB01842B8AB908954AB121E04E
:1003600030E0B90102C0660F771F8A95E2F7CB0132
:10037000962F909594239AB99BB1892B8BB90895A8
:100380008850883080F561110EC044B121E030E022
:10039000B90102C0660F771F8A95E2F7CB018095FD
:1003A000842384B90895613069F444B121E030E0D8
:1003B000B90102C0660F771F8A95E2F7CB01842B43
:1003C00084B9089544B121E030E0B90102C0660F5C
:1003D000771F8A95E2F7CB01962F9095942394B9D5
:1003E00095B1892B85B908958830910578F429B1A4
:1003F00030E002C0359527958A95E2F7C9018170F2
:10040000992720FF24C081E090E008959C012850A6
:1004100031092630310580F4C90123B130E002C032
:10042000359527958A95E2F7C9018170992720FFB4
:100430000EC081E090E0089583B190E0880F892F8D
:10044000881F990B9195009711F081E090E0089535
:10045000CF92DF92EF92FF920F931F9389019A013F
:10046000000F111F221F331F000F111F221F331FE8
:10047000000F111F221F331F000F111F221F331FD8
:10048000883088F050C09FEFC91AD90AE90AF90AE2
:10049000C016D106E206F30608F095C095E09A95DD
:1004A000F1F7000003C0C12CD12C760149B1E82F2F
:1004B00050E0082E02C0559547950A94E2F7A1E056
:1004C000B0E040FD02C0A0E0B0E0462F50E0A4172D
:1004D000B507C9F6C12CD12C76010FC08FEFC81A11
:1004E000D80AE80AF80AC016D106E206F30608F0B0
:1004F0006FC095E09A95F1F7000089B190E00E2E5B
:1005000002C0959587950A94E2F761E070E080FD5E
:1005100002C060E070E04617570701F36C2D7D2D97
:100520008E2D9F2D63C08850C12CD12C76010FC019
:100530009FEFC91AD90AE90AF90AC016D106E206DC
:10054000F30608F04AC095E09A95F1F7000043B130
:10055000E82F50E0082E02C0559547950A94E2F71F
:10056000A1E0B0E040FD02C0A0E0B0E0462F50E0C6
:10057000A417B507E9F6C12CD12C76010EC08FEF78
:10058000C81AD80AE80AF80AC016D106E206F30625
:1005900048F595E09A95F1F7000083B190E00E2EB2
:1005A00002C0959587950A94E2F761E070E080FDBE
:1005B00002C060E070E04617570709F36C2D7D2DEF
:1005C0008E2D9F2D13C060E070E080E090E00EC0A3
:1005D00060E070E080E090E009C060E070E080E002
:1005E00090E004C060E070E080E090E01F910F9127
:1005F000FF90EF90DF90CF90089582EA8093800083
:100600008AE1809381008FEF90E090938700809340
:10061000860083EA84BD82E085BD08950F931F9311
:10062000CF93DF938B01D42F880F0E9483078823F9
:1006300051F0C1E00CC0F801EC0FF11D80810E9467
:10064000B107CF5F01C0C0E0CD17A8F3C0E00E94A2
:10065000A9078C2FDF91CF911F910F9108950F93D0
:100660001F93CF93DF9300D000D01F92CDB7DEB79A
:10067000082F683071F4882311F088E001C080E011
:100680008093000141E060E071E087E20E940E0388
:1006900026C080910001162F182B1983802F807F90
:1006A000812B84608A838B7F8B8320E1029FC00132
:1006B0001124812B84608C838B7F8D8345E0BE0168
:1006C0006F5F7F4F87E20E940E0310FD08C003306A
:1006D00030F4E3EFF1E03197F1F700C000000F9044
:1006E0000F900F900F900F90DF91CF911F910F916E
:1006F0000895CF93DF93D82FC62FE62FF0E0EF5F5A
:10070000FE4F80818D2B60E080680E942F03D09384
:10071000B201C093B301DF91CF91089560E081E011
:100720000E942F031092B3011092B2010895CF934B
:10073000C82F9091B2018091B101981710F4CA307E
:1007400041F46091B3016F5F6093B30180E00E9458
:100750007903CA3049F08091B2018F5F8093B20172
:1007600061E08C2F0E942F03CF910895CF93DF93E8
:10077000EC0103C021960E94970388818111FACF72
:10078000DF91CF910895CF93DF93FC0103C00E94C6
:100790009703FE01EF01219684918111F8CFDF913B
:1007A000CF9108950F931F93CF93DF9300D000D084
:1007B00000D0CDB7DEB7082F80E3898394E39A8316
:1007C0008B8380E28C8394E29D838E8380E180938F
:1007D000B101E1E0F1E08081805F82838181805F0F
:1007E000838384B1806284B985B1806285B90E94B7
:1007F0007D078BE49DE10197F1F700C0000043E025
:10080000BE016F5F7F4F87E20E940E03182F81EEBB
:1008100094E00197F1F700C0000043E0BE016F5F74
:100820007F4F87E20E940E03182B43E0BE016F5FEB
:100830007F4F87E20E940E03182B43E0BE016C5FDE
:100840007F4F87E20E940E03182B60E088E20E942F
:100850002F03812B19F085B18F7D85B960E08CE085
:100860000E942F0360E086E00E942F0360E081E099
:100870000E942F0360E0802F0E942F0326960FB660
:10088000F894DEBF0FBECDBFDF91CF911F910F91C6
:100890000895CF93C82F8A3019F48DE00E9449043F
:1008A0008091C00085FFFCCFC093C60080E090E03F
:1008B000CF9108959B01AC0160E472E48FE090E079
:1008C0000E94690C215031093093C5002093C40067
:1008D00088E98093C10086E08093C20008951F924A
:1008E0000F920FB60F9211248F938091C6008093C0
:1008F000AE018F910F900FBE0F901F901895CF9360
:10090000DF9380E291E09F938F930E94EC0D8091A2
:10091000CB018F938091CA018F938091C9018F93EE
:100920008091C8018F938CE291E09F938F930E94F6
:10093000EC0DC7E3D1E0DF93CF930E94EC0D8091E3
:10094000BB018F938091BA018F938091B9018F93EE
:100950008091B8018F938BE391E09F938F930E94D6
:10096000EC0DDF93CF930E94EC0D8091BF018F932C
:100970008091BE018F938091BD018F938091BC01C6
:100980008F9386E491E09F938F930E94EC0D80E516
:1009900091E00E94020E8DB79EB748960FB6F8946C
:1009A0009EBF0FBE8DBFDF91CF9108951092A2011F
:1009B0001092A3011092A4011092A501E0EBF0E0C7
:1009C000808182608083E1EBF0E0808184608083BD
:1009D00089EF8093B300E0E7F0E08081826080835C
:1009E000789408951F920F920FB60F9211248F934F
:1009F0009F93AF93BF938091A2019091A301A09187
:100A0000A401B091A5010196A11DB11D8093A20181
:100A10009093A301A093A401B093A501BF91AF91BE
:100A20009F918F910F900FBE0F901F9018958091FE
:100A3000AE018823F1F18091AE011F928F9384E57E
:100A400091E09F938F930E94EC0D8091AE010F90E7
:100A50000F900F900F908C34B9F028F4823471F01D
:100A6000863431F020C08235A9F08335C9F01BC02F
:100A700080911D0190E00E94DA0019C080911D0153
:100A800090E00E94FD0013C080911D0190E00E9443
:100A9000F2000DC080911D0190E00E94E70007C0A8
:100AA0000E940A0104C08AE691E00E94020E1092A0
:100AB000AE01089582E00E94D2030E94D60460E84D
:100AC00075E280E090E00E945A0485E091E0909306
:100AD000CF018093CE0161E085E00E948D0161E04D
:100AE00086E00E948D0161E089E00E948D0161E055
:100AF0008AE00E948D010E94FD0262E084E10E9472
:100B00008D0161E0809115010E948D0160E080916E
:100B10001B010E948D0160E0809119010E948D01EE
:100B200060E0809117010E948D0160E08CE00E94DE
:100B30008D0160E08BE00E948D0160E082E00E9408
:100B40008D0160E083E00E948D0187B1816087B9EB
:100B50000E948E0360E080E00E9479038AE691E0C3
:100B60000E94C30361E081E00E9479038AE791E07B
:100B70000E94B603F894C090A201D090A301E09027
:100B8000A401F090A501789480911E0190911F011D
:100B9000892B09F0E2C08091AA019091AB01A0914C
:100BA000AC01B091AD01A7019601281B390B4A0B8E
:100BB0005B0B243631054105510508F4CEC0809108
:100BC000190190911A010E9415016093C801709358
:100BD000C9018093CA019093CB018FE39CE90197EF
:100BE000F1F700C0000080911B0190911C010E9450
:100BF00015016093B8017093B9018093BA01909385
:100C0000BB018FE39CE90197F1F700C000008091E0
:100C10001701909118010E9415016093BC01709317
:100C2000BD018093BE019093BF018FE39CE90197C2
:100C3000F1F700C000000E947F046091B80170913C
:100C4000B9018091BA019091BB0120E030E040E20F
:100C500052E40E94C30788230CF049C08090BC0175
:100C60009090BD01A090BE01B090BF0120E030E0A7
:100C700048EB51E4C501B4010E94C3078823ACF4DA
:100C80006091C8017091C9018091CA019091CB0116
:100C900020E030E048EB51E40E94C30788232CF4A5
:100CA00080E090E00E94FD0050C04090C80150904C
:100CB000C9016090CA017090CB01A3019201C501E6
:100CC000B4010E94290818162CF480E090E00E94DC
:100CD000F2003BC0A3019201C501B4010E94C30709
:100CE00088239CF580E090E00E94E7002EC0609190
:100CF000BC017091BD018091BE019091BF0120E0C7
:100D000030E048EB51E40E94C30788232CF480E0D4
:100D100090E00E94E70019C06091C8017091C9017C
:100D20008091CA019091CB0120E030E048EB51E482
:100D30000E94C30788232CF480E090E00E94F20018
:100D400004C080E090E00E94DA00C092AA01D09234
:100D5000AB01E092AC01F092AD0180911E01909147
:100D60001F01019709F046C082E090E00E94F40163
:100D7000019771F484E690E00E94F2009FEF25EA6B
:100D80003EE0915020403040E1F700C000002EC00E
:100D900083E090E00E94F401019771F484E690E012
:100DA0000E94E7004FEF55EA8EE0415050408040EE
:100DB000E1F700C000001AC08CE090E00E94F4014E
:100DC000019729F484E690E00E94F2000FC08AE0C7
:100DD00090E00E94F401019729F484E690E00E94DB
:100DE000E70004C084E690E00E94DA001092B001AF
:100DF0001092AF0180911E0190911F01029799F40A
:100E00008091AF019091B001892B59F40E940A01A1
:100E10008091AF019091B00101969093B0018093C1
:100E2000AF010E94170584E190E00E94F401892B34
:100E300009F057C08091A6019091A701A091A80147
:100E4000B091A901B701A601481B590B6A0B7B0B96
:100E50008091130190911401092E000CAA0BBB0B79
:100E6000481759076A077B07E0F180911E019091AE
:100E70001F01019690931F0180931E01C092A6014D
:100E8000D092A701E092A801F092A9019F938F93BD
:100E900083E891E09F938F930E94EC0D0E948E0354
:100EA00061E080E00E94790380911E0190911F0112
:100EB0000F900F900F900F90009719F083309105CD
:100EC00029F486E891E00E94B6030BC0019729F44B
:100ED00082E991E00E94B60304C086E991E00E9495
:100EE000B60380911E0190911F01039709F042CE35
:100EF00010921F0110921E013DCE1092B90088E49D
:100F00008093B800089594EA9093BC009091BC003F
:100F10009923E4F79091B900987F983011F09031BF
:100F200091F48093BB0084E88093BC008091BC0066
:100F30008823E4F78091B900887F883131F08034CC
:100F400031F480E0089581E0089580E0089581E023
:100F5000089584E98093BC008091BC0084FDFCCF9F
:100F600008958093BB0084E88093BC008091BC000E
:100F70008823E4F78091B900887F883211F081E0FE
:100F8000089580E008950E94050808F481E008951E
:100F9000E89409C097FB3EF4909580957095619513
:100FA0007F4F8F4F9F4F9923A9F0F92F96E9BB27C9
:100FB0009395F695879577956795B795F111F8CF45
:100FC000FAF4BB0F11F460FF1BC06F5F7F4F8F4FB0
:100FD0009F4F16C0882311F096E911C0772321F0A6
:100FE0009EE8872F762F05C0662371F096E8862F3E
:100FF00070E060E02AF09A95660F771F881FDAF795
:10100000880F9695879597F90895990F0008550FC1
:10101000AA0BE0E8FEEF16161706E807F907C0F07E
:1010200012161306E407F50798F0621B730B840B86
:10103000950B39F40A2661F0232B242B252B21F460
:1010400008950A2609F4A140A6958FEF811D811D00
:1010500008950E94050808F48FEF08950E94410842
:101060000C94B2080E94A40838F00E94AB0820F04B
:10107000952311F00C949B080C94A10811240C9456
:10108000E6080E94C30870F3959FC1F3950F50E0E6
:10109000551F629FF001729FBB27F00DB11D639F2A
:1010A000AA27F00DB11DAA1F649F6627B00DA11DD0
:1010B000661F829F2227B00DA11D621F739FB00D76
:1010C000A11D621F839FA00D611D221F749F3327E6
:1010D000A00D611D231F849F600D211D822F762F7F
:1010E0006A2F11249F5750409AF0F1F088234AF05C
:1010F000EE0FFF1FBB1F661F771F881F91505040C8
:10110000A9F79E3F510580F00C949B080C94E608CB
:101110005F3FE4F3983ED4F3869577956795B7954E
:10112000F795E7959F5FC1F7FE2B880F911D969568
:10113000879597F9089597F99F6780E870E060E0D8
:1011400008959FEF80EC089500240A941616170660
:1011500018060906089500240A94121613061406A8
:1011600005060895092E0394000C11F4882352F00B
:10117000BB0F40F4BF2B11F460FF04C06F5F7F4FC3
:101180008F4F9F4F089557FD9058440F551F59F0AA
:101190005F3F71F04795880F97FB991F61F09F3F64
:1011A00079F087950895121613061406551FF2CF8D
:1011B0004695F1DF08C0161617061806991FF1CFDD
:1011C00086957105610508940895E894BB27662704
:1011D0007727CB0197F90895A0E1B0E0E2EFF8E0BE
:1011E0000C948B0C7C011B016A01FC011782168296
:1011F000838181FF44C39E012F5F3F4F3901F70177
:101200009381F10193FD859193FF81911F018823C3
:1012100009F431C3853239F493FD859193FF8191AF
:101220001F01853239F4B70190E00E94B00D5601DC
:101230006501E5CF10E0512C912CFFE1F915D8F0B4
:101240008B3279F038F4803279F08332A1F4F92DC1
:10125000F0612EC08D3261F0803369F4292D216058
:101260002DC0392D3260932E892D8460982E2AC08E
:10127000E92DE86015C097FC2DC020ED280F2A301D
:1012800088F496FE06C03AE0139F200D1124122F19
:1012900019C08AE0589E200D1124522EE92DE062DB
:1012A0009E2E10C08E3231F496FCE5C2F92DF0640A
:1012B0009F2E08C08C3621F4292D2068922E02C062
:1012C000883641F4F10193FD859193FF81911F01CF
:1012D0008111B3CF9BEB980F933020F4992D90613F
:1012E000805E07C09BE9980F933008F066C1992D86
:1012F0009F7E96FF16E09F73992E853619F49064B1
:10130000992E08C0863621F4392F3068932E02C0FA
:101310001111115097FE07C01C3350F4442443941C
:10132000410E27E00BC0183038F027E017E005C069
:1013300027E09CE3492E02C0212F412C560184E076
:10134000A80EB11CF6016081718182819381042D08
:10135000A3010E94C20C6C01F981FC87F0FF02C05E
:10136000F3FF06C091FC06C092FE06C000E205C075
:101370000DE203C00BE201C000E08C858C7019F017
:1013800001115AC29BC297FE10C04C0CFC85F4FFA1
:1013900004C08A81813309F44A94141474F528E056
:1013A000241578F588E0482E2CC096FC2AC0812FA1
:1013B00090E08C159D059CF03CEFC3163FEFD306E3
:1013C00074F0892D8068982E0AC0E2E0F0E0EC0FFE
:1013D000FD1FE10FF11D8081803319F411501111AF
:1013E000F4CF97FE0EC044244394410E812F90E029
:1013F000C816D9062CF41C1904C04424439401C017
:1014000010E097FE06C01C141D0434F4C6010196BA
:1014100005C085E090E002C081E090E001110196F6
:10142000112331F0212F30E02F5F3F4F820F931FA8
:10143000252D30E08217930714F4581A01C0512C5F
:10144000892D897049F4552039F0B70180E290E088
:101450000E94B00D5A94F7CF002329F0B701802FD6
:1014600090E00E94B00D93FC09C0552039F0B701FF
:1014700080E390E00E94B00D5A94F7CF97FE4CC0E5
:101480004601D7FE02C0812C912CC601881999090A
:10149000F301E80FF91FFE87ED8796012419310942
:1014A000388B2F87012F10E01195019511093FEF1F
:1014B0008316930629F4B7018EE290E00E94B00DE6
:1014C000C814D9044CF08F8598898815990524F49F
:1014D000ED85FE85818101C080E3F1E08F1A9108DE
:1014E0002D853E852F5F3F4F3E872D8780169106C5
:1014F0002CF0B70190E00E94B00DD9CFC814D904E8
:1015000041F49A81963320F4953319F43C8534FFE5
:1015100081E3B70190E04EC08A81813319F09C8548
:101520009F7E9C87B70190E00E94B00D111105C00D
:1015300094FC18C085E690E017C0B7018EE290E0F9
:101540000E94B00D1E5F82E001E0080FF301E80F7A
:10155000F11D8081B70190E00E94B00D802F011332
:10156000F3CFE6CF85E490E0B7010E94B00DD7FC41
:1015700006C0C114D10441F4EC85E4FF05C0D19448
:10158000C194D1088DE201C08BE2B70190E00E94C6
:10159000B00D80E32AE0C216D1042CF08F5FFAE090
:1015A000CF1AD108F7CFB70190E00E94B00DB70174
:1015B000C601C0960E94B00D54C1833631F0833706
:1015C00079F0833509F056C020C0560132E0A30EF1
:1015D000B11CF6018081898301E010E0630112C033
:1015E0005601F2E0AF0EB11CF601C080D18096FE2C
:1015F00003C0612F70E002C06FEF7FEFC6010E9451
:10160000A50D8C01F92DFF7714C0560122E0A20E22
:10161000B11CF601C080D18096FE03C0612F70E03E
:1016200002C06FEF7FEFC6010E949A0D8C01F92D69
:10163000F0689F2EF3FD1AC0852D90E0081719075A
:10164000A8F4B70180E290E00E94B00D5A94F4CF64
:10165000F60197FC859197FE81916F01B70190E0AB
:101660000E94B00D51105A94015011090115110535
:1016700079F7F7C0843611F0893661F5560197FE87
:1016800009C024E0A20EB11CF60160817181828143
:1016900093810AC0F2E0AF0EB11CF6016081718146
:1016A000072E000C880B990BF92DFF769F2E97FFC4
:1016B00009C090958095709561957F4F8F4F9F4F92
:1016C000F0689F2E2AE030E0A3010E94320EC82E5F
:1016D000C6183FC0092D853721F40F7E2AE030E07F
:1016E0001DC0097F8F3691F018F4883559F0C3C0BA
:1016F000803719F0883711F0BEC0006104FF09C0BF
:10170000046007C094FE08C0066006C028E030E010
:1017100005C020E130E002C020E132E0560107FFC1
:1017200009C084E0A80EB11CF6016081718182813C
:10173000938108C0F2E0AF0EB11CF60160817181A7
:1017400080E090E0A3010E94320EC82EC6180F77E9
:10175000902E96FE0BC0092D0E7FC11650F494FEFC
:101760000AC092FC08C0092D0E7E05C0DC2C092D94
:1017700003C0DC2C01C0D12E04FF0DC0FE01EC0D16
:10178000F11D8081803311F4097E09C002FF06C07B
:10179000D394D39404C0802F867809F0D39403FDAA
:1017A00011C000FF06C01C2DD51480F4150D1D19A5
:1017B0000DC0D51458F4B70180E290E00E94B00D3E
:1017C000D394F7CFD51410F45D1801C0512C04FF49
:1017D00010C0B70180E390E00E94B00D02FF17C077
:1017E00001FD03C088E790E002C088E590E0B70102
:1017F0000CC0802F867859F001FF02C08BE201C037
:1018000080E207FD8DE2B70190E00E94B00DC116A5
:1018100038F4B70180E390E00E94B00D1150F7CF8B
:10182000CA94F301EC0DF11D8081B70190E00E9494
:10183000B00DC110F5CF15C0F4E0F51560F584E0EA
:10184000581A93FE1FC0011127C02C8523FF2AC000
:1018500008E610E0392D3071932EF8018491811142
:1018600024C0552009F4E4CCB70180E290E00E9446
:10187000B00D5A94F6CFF7018681978126C08FEF7D
:101880009FEF23C0B70180E290E00E94B00D5A9410
:101890005110F8CFD8CF512CB701802F90E00E9483
:1018A000B00DD3CF0CE610E0D5CF91108052B70128
:1018B00090E00E94B00D0F5F1F4FCFCF23E02515A2
:1018C00010F483E0BDCF512CC0CF6096E2E10C94C0
:1018D000A70CA1E21A2EAA1BBB1BFD010DC0AA1F5B
:1018E000BB1FEE1FFF1FA217B307E407F50720F089
:1018F000A21BB30BE40BF50B661F771F881F991F04
:101900001A9469F760957095809590959B01AC014C
:10191000BD01CF0108952F923F924F925F926F9237
:101920007F928F929F92AF92BF92CF92DF92EF926F
:10193000FF920F931F93CF93DF93CDB7DEB7CA1BF0
:10194000DB0B0FB6F894DEBF0FBECDBF09942A881B
:10195000398848885F846E847D848C849B84AA84C3
:10196000B984C884DF80EE80FD800C811B81AA8150
:10197000B981CE0FD11D0FB6F894DEBF0FBECDBF1B
:10198000ED010895283008F027E03327DA01990F98
:10199000311D87FD916000966105710539F4326053
:1019A0002E5F3D9330E32A95E1F708959F3F30F095
:1019B00080387105610509F03C5F3C5F3D939130D3
:1019C00008F08068911DDF93CF931F930F93FF92D0
:1019D000EF92192F987F9695E92F96959695E90F96
:1019E000FF27E653FF4F99273327EE24FF24A70153
:1019F000E70105900894079428F4360FE71EF81EB7
:101A0000491F511D660F771F881F991F0694A1F764
:101A10000590079428F4E70EF81E491F561FC11DB4
:101A2000770F881F991F661F0694A1F705900794EA
:101A300028F4F80E491F561FC71FD11D880F991F84
:101A4000661F771F0694A1F70590079420F4490FAD
:101A5000561FC71FD81F990F661F771F881F069430
:101A6000A9F784911095177041F0D695C7955795B1
:101A70004795F794E7941A95C1F7E0E7F0E068948A
:101A80001590159135916591959105907FE273952B
:101A9000E118F10A430B560BC90BD009C0F7E10C52
:101AA000F11E431F561FC91FD01D7EF4703311F461
:101AB0008A95E6CFE894015030F0080F0AF4002729
:101AC000021708F4202F2395022F7A3328F079E3A8
:101AD0007D932A95E9F710C07D932A9589F606949F
:101AE00097956795379517951794E118F10A430B69
:101AF000560BC90BD00998F023957E9173957A33D4
:101B000008F070E37C932013B8F77E9170617D93A9
:101B100030F0839571E37D9370E32A95E1F711240A
:101B2000EF90FF900F911F91CF91DF91992787FD43
:101B300090950895FC010590615070400110D8F710
:101B4000809590958E0F9F1F0895FC016150704005
:101B500001900110D8F7809590958E0F9F1F0895E2
:101B60000F931F93CF93DF93FB01238121FD03C0CC
:101B70008FEF9FEF2CC022FF16C046815781248132
:101B800035814217530744F4A081B1819D012F5F35
:101B90003F4F318320838C93268137812F5F3F4FC6
:101BA0003783268314C08B01EC01FB010084F1858F
:101BB000E02D0995892BE1F6D80116968D919C911F
:101BC0001797019617969C938E931697CE01DF91E7
:101BD000CF911F910F910895A0E0B0E0E2EFFDE0FA
:101BE0000C949B0CAE014B5F5F4FFA0161917191B8
:101BF000AF018091CE019091CF010E94EC08E2E00C
:101C00000C94B70C0F931F93CF93DF93E091CE0109
:101C1000F091CF01238121FF1BC08C01D0E0C0E0F7
:101C2000F80181918F016091CE017091CF01DB01AC
:101C30001896ED91FC911997882331F00995892B1D
:101C400079F3DFEFCFEFECCF8AE00995892B19F01C
:101C50008FEF9FEF02C08D2F9C2FDF91CF911F91AF
:101C60000F910895FA01AA27283051F1203181F10E
:101C7000E8946F936E7F6E5F7F4F8F4F9F4FAF4F94
:101C8000B1E03ED0B4E03CD0670F781F891F9A1FA7
:101C9000A11D680F791F8A1F911DA11D6A0F711D5B
:101CA000811D911DA11D20D009F468943F912AE067
:101CB000269F11243019305D3193DEF6CF0108954F
:101CC000462F4770405D4193B3E00FD0C9F7F6CF80
:101CD000462F4F70405D4A3318F0495D31FD405248
:101CE000419302D0A9F7EACFB4E0A69597958795DE
:101CF00077956795BA95C9F70097610571050895BD
:101D00009B01AC010A2E0694579547953795279568
:101D1000BA95C9F7620F731F841F951FA01D089500
:041D2000F894FFCF65
:101D24000880C00000000000020000000049040018
:101D3400000000E8030D00070004000800C80200CA
:101D440064697374616E6365733A200072696768CD
:101D54007420252E3266002D2D2D0066726F6E7450
:101D640020252E3266006C65667420252E326600AE
:101D740020636D00526563656976656420436F6D09
:101D84006D616E643A2025630A00496E76616C6960
:101D94006420436F6D6D616E640050524553454E2F
:101DA40054530025640020556C747261736F6E691E
:101DB40063002049520020426C7565746F6F74682B
:021DC40000001D
:00000001FF
